:100000000C942A000C9447000C9447000C94470071
:100010000C94100C0C945F0E0C9447000C94470049
:100020000C9447000C9447000C94250B0C944C0B3B
:100030000C9447000C9447000C9447000C94470024
:100040000C9447000C9447000C9447000C94470014
:100050000C94470011241FBECFE5D8E0DEBFCDBF12
:1000600010E0A0E6B0E0E8E0FEE202C005900D92EC
:10007000A039B107D9F710E0A0E9B0E001C01D92A6
:10008000A13DB107E1F70E946A000C9402170C949D
:1000900000003E9A3F9A379A329A319A30980895E2
:1000A00097B1907E97B997B18770982B97B9369A88
:1000B000349BFECF349A84B190E045B1342F20E0D8
:1000C000822B932B089540E00E94940008950E9493
:1000D000B601089582E460E00E94630084E462E077
:1000E0000E94C50882E460E00E946700813029F424
:1000F00084E462E00E94C908F5CF84E462E00E94D3
:10010000CD08F0CF8EBB9FBB6DBBE29AE19AE1991F
:10011000FECF08958EBB9FBBE09A8DB308951ABAA7
:1001200017BA14BA11BA0895843409F471C0853429
:1001300048F4823499F1833408F04DC0813409F0D9
:1001400083C00FC0823651F1833620F4813609F026
:100150007BC007C0833609F43EC0843609F074C002
:1001600057C0413069F42AB381E090E0AC0102C08D
:10017000440F551F6A95E2F7BA01622B6ABB0895D6
:100180002AB381E090E0AC0102C0440F551F6A958C
:10019000E2F7BA01609562236ABB0895413069F4C1
:1001A00027B381E090E0AC0102C0440F551F6A956F
:1001B000E2F7BA01622B67BB089527B381E090E0B4
:1001C000AC0102C0440F551F6A95E2F7BA01609571
:1001D000622367BB0895413069F424B381E090E065
:1001E000AC0102C0440F551F6A95E2F7BA01622BB9
:1001F00064BB089524B381E090E0AC0102C0440FD9
:10020000551F6A95E2F7BA016095622364BB0895B1
:10021000413069F421B381E090E0AC0102C0440FA9
:10022000551F6A95E2F7BA01622B61BB089521B3AD
:1002300081E090E0AC0102C0440F551F6A95E2F7DF
:10024000BA016095622361BB0895843409F471C0DA
:10025000853448F4823499F1833408F04DC08134F8
:1002600009F083C00FC0823651F1833620F4813605
:1002700009F07BC007C0833609F43EC0843609F01C
:1002800074C057C0413069F42BB381E090E0AC01F9
:1002900002C0440F551F6A95E2F7BA01622B6BBB8F
:1002A00008952BB381E090E0AC0102C0440F551FCC
:1002B0006A95E2F7BA01609562236BBB08954130FD
:1002C00069F428B381E090E0AC0102C0440F551FEF
:1002D0006A95E2F7BA01622B68BB089528B381E002
:1002E00090E0AC0102C0440F551F6A95E2F7BA01D5
:1002F0006095622368BB0895413069F425B381E0BD
:1003000090E0AC0102C0440F551F6A95E2F7BA01B4
:10031000622B65BB089525B381E090E0AC0102C07B
:10032000440F551F6A95E2F7BA016095622365BBD9
:100330000895413069F422B381E090E0AC0102C03D
:10034000440F551F6A95E2F7BA01622B62BB08950C
:1003500022B381E090E0AC0102C0440F551F6A95C2
:10036000E2F7BA016095622362BB0895843409F410
:100370004EC0853440F4823431F18334B0F5813499
:1003800009F057C00EC08236F1F0833620F4813672
:1003900009F04FC006C0833641F1843609F049C0E8
:1003A00036C029B381E090E0062E02C0880F991F65
:1003B0000A94E2F730E08223932302C09595879553
:1003C0006A95E2F7089526B381E090E0062E02C018
:1003D000880F991F0A94E2F730E08223932302C02A
:1003E000959587956A95E2F7089523B381E090E0AB
:1003F000062E02C0880F991F0A94E2F730E082238C
:10040000932302C0959587956A95E2F7089520B3E6
:1004100081E090E0062E02C0880F991F0A94E2F74F
:1004200030E08223932302C0959587956A95E2F781
:10043000089580E00895843409F43DC0853440F483
:100440008234F9F0833450F5813409F040C00CC097
:100450008236B9F0833618F48136C9F505C0833683
:10046000E9F08436A1F527C02BB381E090E0AC0120
:1004700002C0440F551F6A95E2F7BA0162276BBBB1
:10048000089528B381E090E0AC0102C0440F551FED
:100490006A95E2F7BA01622768BB089525B381E047
:1004A00090E0AC0102C0440F551F6A95E2F7BA0113
:1004B000622765BB089522B381E090E0AC0102C0E1
:1004C000440F551F6A95E2F7BA01622762BB08958F
:1004D000843409F47AC0853448F48234B1F1833429
:1004E00008F053C0813409F08FC00FC0823669F123
:1004F000833620F4813609F087C007C0833609F4BB
:1005000044C0843609F080C060C0413081F42BB310
:1005100081E090E0AC0102C0440F551F6A95E2F7FC
:10052000BA01622B6BBB80B78B7F80BF08952BB362
:1005300081E090E0AC0102C0440F551F6A95E2F7DC
:10054000BA01609562236BBB0895413081F428B3F2
:1005500081E090E0AC0102C0440F551F6A95E2F7BC
:10056000BA01622B68BB80B78B7F80BF089528B328
:1005700081E090E0AC0102C0440F551F6A95E2F79C
:10058000BA016095622368BB0895413081F425B3B8
:1005900081E090E0AC0102C0440F551F6A95E2F77C
:1005A000BA01622B65BB80B78B7F80BF089525B3EE
:1005B00081E090E0AC0102C0440F551F6A95E2F75C
:1005C000BA016095622365BB0895413081F422B37E
:1005D00081E090E0AC0102C0440F551F6A95E2F73C
:1005E000BA01622B62BB80B78B7F80BF089522B3B4
:1005F00081E090E0AC0102C0440F551F6A95E2F71C
:10060000BA016095622362BB08958434D9F08534C1
:1006100038F4823499F0833498F48134A1F40CC016
:10062000823661F0833618F4813669F405C083366A
:1006300039F0843641F406C06ABB089567BB08955B
:1006400064BB089561BB08958434D9F0853438F4CF
:10065000823499F0833498F48134A1F40CC082364A
:1006600061F0833618F4813669F405C0833639F0B9
:10067000843641F406C06BBB089568BB089565BB22
:10068000089562BB0895843409F1853438F48234C6
:10069000A9F08334B8F48134E1F40CC0823671F0EF
:1006A000833618F48136A9F405C0833659F08436B0
:1006B00081F40CC08BB380958BBB089588B3809573
:1006C00088BB089585B3809585BB089582B38095D6
:1006D00082BB0895CF93DF930F92CDB7DEB7198217
:1006E0008434F1F0853438F48234A1F08334A8F4F2
:1006F0008134C1F40CC0823669F0833618F4813637
:1007000089F405C0833649F0843661F409C089B3A1
:10071000898308C086B3898305C083B3898302C0F7
:1007200080B389830F90DF91CF910895CF93C82F25
:100730006130A1F464E041E00E9494008C2F65E0F8
:1007400041E00E9494008C2F66E041E00E949400FA
:100750008C2F67E041E00E94940013C064E040E009
:100760000E9494008C2F65E040E00E9494008C2F42
:1007700066E040E00E9494008C2F67E040E00E9419
:100780009400CF9108956295607F843451F185344F
:1007900038F48234C1F08334E8F4813441F50CC07C
:1007A000823689F0833618F4813609F505C0833620
:1007B00089F08436E1F415C08BB38F708BBB8BB39B
:1007C000682B6BBB089588B38F7088BB88B3682B88
:1007D00068BB089585B38F7085BB85B3682B65BBF7
:1007E000089582B38F7082BB82B3682B62BB089579
:1007F000CF93C82F6130A1F460E041E00E949400E3
:100800008C2F61E041E00E9494008C2F62E041E077
:100810000E9494008C2F63E041E00E94940013C07A
:1008200060E040E00E9494008C2F61E040E00E9474
:1008300094008C2F62E040E00E9494008C2F63E0D3
:1008400040E00E949400CF9108956F70843451F17C
:10085000853438F48234C1F08334E8F4813441F5CE
:100860000CC0823689F0833618F4813609F505C04C
:10087000833689F08436E1F415C08BB3807F8BBB5F
:100880008BB3682B6BBB089588B3807F88BB88B31C
:10089000682B68BB089585B3807F85BB85B3682BC3
:1008A00065BB089582B3807F82BB82B3682B62BB35
:1008B0000895CF93C82F6FE00E9405038C2F64E04A
:1008C00041E00E9468028C2F65E041E00E946802CE
:1008D0008C2F66E041E00E9468028C2F67E041E0C7
:1008E0000E946802CF910895FF920F931F93CF93B8
:1008F000DF93CDB7DEB760970FB6F894DEBF0FBEBB
:10090000CDBF082FDE011196E0E6F0E080E1019016
:100910000D928150E1F7FF24802F60E041E00E94BA
:100920002501802F61E041E00E942501802F62E0D7
:1009300041E00E942501802F63E041E00E942501F3
:10094000802F6F2D40E00E94250110E0612F6C5F29
:10095000802F0E94B601882361F4EF2DF0E0EE0FA6
:10096000FF1FEE0FFF1FE10FF11DEC0FFD1F818137
:1009700004C01F5F143051F70CC060960FB6F89496
:10098000DEBF0FBECDBFDF91CF911F910F91FF90C2
:100990000895F39484E0F81609F0BECF8FEFEDCF01
:1009A000CF93DF93D82FC62F41E00E9425018FE916
:1009B0009FE00197F1F700C000008D2F6C2F40E001
:1009C0000E942501DF91CF910895AF92CF92EF92CF
:1009D0000F93CF93DF93C42FD22F813071F4842FE4
:1009E0006E2D0E9424038D2F602F40E00E94250170
:1009F0008C2D6A2D0E94D00447C0613019F56E2DF0
:100A000062956F70842F0E94C3038D2F602F40E08A
:100A10000E9425018C2D6A2D0E94D0048C2F6E2DF2
:100A20000E94C3038D2F602F40E00E9425018C2D72
:100A30006A2D0E94D0048FEC97E00197F1F700C077
:100A4000000022C06E2D62956F70842F0E942504D5
:100A50008D2F602F40E00E9425018C2D6A2D0E9471
:100A6000D0048C2F6E2D0E9425048D2F602F40E026
:100A70000E9425018C2D6A2D0E94D0048FEC97E0F6
:100A80000197F1F700C00000DF91CF910F91EF9037
:100A9000CF90AF9008957F928F929F92AF92BF9226
:100AA000CF92DF92EF92FF920F931F93CF93DF933A
:100AB000CDB7DEB7182FF62E742E922E8FEF91EE53
:100AC000A4E081509040A040E1F700C00000822FD8
:100AD000602F41E00E9494008E2D6C2D41E00E9419
:100AE00094008A2D682D41E00E949400113009F095
:100AF00050C0872D6FEF0E9405038E2D6C2D40E0B6
:100B00000E942501AFE2B5E71197F1F700C00000A0
:100B100081E06F2D472D292D0F2EF8E3EF2EF02DBC
:100B2000CA2CA82C0E94E5048FEC97E00197F1F7FE
:100B300000C0000081E06F2D472D292D0F2EFEE013
:100B4000EF2EF02D0E94E504AFECB7E01197F1F71E
:100B500000C0000081E06F2D472D292DEE24E39485
:100B60000E94E5048FE19EE40197F1F700C00000C8
:100B700081E06F2D472D292D0F2EF6E0EF2EF02D61
:100B80000E94E504AFECB7E01197F1F700C0000058
:100B9000B5C0B1E0FB1609F059C0872D61E00E9495
:100BA00096038E2D6C2D40E00E942501812F61E07F
:100BB000472D292DEE246894E1F8CA2CA82C0E9418
:100BC000E5048FE295E70197F1F700C00000812F5F
:100BD00061E0472D292D0F2EF8E2EF2EF02D0E9417
:100BE000E504AFECB7E01197F1F700C00000812FEA
:100BF00061E0472D292D0F2EFEE0EF2EF02D0E94F3
:100C0000E5048FEC97E00197F1F700C00000812F19
:100C100061E0472D292DEE24E3940E94E504AFE125
:100C2000BEE41197F1F700C00000812F61E0472D6D
:100C3000292D0F2EF6E0EF2EF02D0E94E5048FEC0B
:100C400097E00197F1F700C0000058C0872D61E0E0
:100C50000E94F8038E2D6C2D40E00E942501812F0B
:100C60006F2D472D292DEE246894E1F8CA2CA82C6D
:100C70000E94E504AFE2B5E71197F1F700C000006C
:100C8000812F6F2D472D292D0F2EF8E2EF2EF02DFD
:100C90000E94E5048FEC97E00197F1F700C0000097
:100CA000812F6F2D472D292D0F2EFEE0EF2EF02DD9
:100CB0000E94E504AFECB7E01197F1F700C0000027
:100CC000812F6F2D472D292DEE24E3940E94E504FA
:100CD0008FE19EE40197F1F700C00000812F6F2D96
:100CE000472D292D0F2EF6E0EF2EF02D0E94E50462
:100CF000AFECB7E01197F1F700C00000DF91CF91A2
:100D00001F910F91FF90EF90DF90CF90BF90AF9029
:100D10009F908F907F900895AF92CF92EF920F9314
:100D20009E2DAC2CEE24E394C92E0E94E5048FE1A5
:100D30009EE40197F1F700C000000F91EF90CF9073
:100D4000AF9008958F92AF92CF92EF920F93CF937F
:100D5000DF93CDB7DEB73E2D9C2D7A2D71507330C9
:100D600088F470E1781580F0882081F071E0A71692
:100D700019F4582D51580BC072E0A71641F4582DA4
:100D8000515405C050E803C050E801C050E8E52EBA
:100D9000C32EA92E0E94E5048FEC97E00197F1F78E
:100DA00000C00000DF91CF910F91EF90CF90AF90F6
:100DB0008F900895AF92CF92EF920F93CF93DF93DE
:100DC000C42FD22F8130A1F4842F6A2D0E942403D6
:100DD0008D2F602F41E00E9425018E2D6C2D0E94E9
:100DE000D0048FEC97E00197F1F700C0000047C0F6
:100DF000613019F56A2D62956F70842F0E94C303CC
:100E00008D2F602F41E00E9425018E2D6C2D0E94B8
:100E1000D0048C2F6A2D0E94C3038D2F602F41E0D8
:100E20000E9425018E2D6C2D0E94D0048FEC97E03E
:100E30000197F1F700C0000022C06A2D62956F7023
:100E4000842F0E9425048D2F602F41E00E942501F0
:100E50008E2D6C2D0E94D0048C2F6A2D0E942504AB
:100E60008D2F602F41E00E9425018E2D6C2D0E9458
:100E7000D0048FEC97E00197F1F700C00000DF91FC
:100E8000CF910F91EF90CF90AF9008956F927F9296
:100E90008F929F92AF92BF92CF92DF92EF92FF928A
:100EA0000F931F93CF93DF93682E762E842E922E6E
:100EB000D02EFE2C1C2DE501A880AA2069F02196D9
:100EC000862D672D482D292D0D2DEF2CC12E0E942A
:100ED000DA06A990AA20A1F7DF91CF911F910F9177
:100EE000FF90EF90DF90CF90BF90AF909F908F904A
:100EF0007F906F9008957F928F929F92AF92BF9252
:100F0000CF92DF92EF92FF920F931F93CF93DF93D5
:100F1000CDB7DEB727970FB6F894DEBF0FBECDBFB3
:100F2000182FF62ED42E722ED501C4012DB73EB740
:100F3000285030400FB6F8943EBF0FBE2DBF4DB7BE
:100F40005EB74F5F5F4F5E010894A11CB11CEDB707
:100F5000FEB7B282A18220E730E0FA013383228318
:100F600084839583A683B7830E942B142DB73EB745
:100F7000285F3F4F0FB6F8943EBF0FBE2DBF812FA5
:100F80006F2D4D2D272D0E94460727960FB6F894FA
:100F9000DEBF0FBECDBFDF91CF911F910F91FF90AC
:100FA000EF90DF90CF90BF90AF909F908F907F9009
:100FB00008952F923F924F925F926F927F928F92FD
:100FC0009F92AF92BF92CF92DF92EF92FF920F93D8
:100FD0001F93CF93DF93CDB7DEB761970FB6F89429
:100FE000DEBF0FBECDBF182FF62ED42E298BC50124
:100FF000B40120E030E0A9010E94301288236CF493
:101000002401350177FA709477F870940F2EF3E786
:101010002F2EF0E03F2EF02D08C0240135010F2EB9
:10102000F5E72F2EF0E03F2EF02DC301B2010E9414
:101030009C122DB73EB72E5030400FB6F8943EBFED
:101040000FBE2DBF8DB69EB60894811C911C5E010B
:101050000894A11CB11CEDB7FEB7B282A18226E7AD
:1010600030E0F401338322833582248266837783E0
:10107000808791870E94CF129B01AC01C301B2010E
:101080000E94CB1120E030E44CE156E40E947F1333
:101090000E949C12DC01CB01F40182879387A48714
:1010A000B5870E942B142DB73EB7225F3F4F0FB676
:1010B000F8943EBF0FBE2DBF812F6F2D4D2D298976
:1010C0000E94460761960FB6F894DEBF0FBECDBFF3
:1010D000DF91CF911F910F91FF90EF90DF90CF9014
:1010E000BF90AF909F908F907F906F905F904F9048
:1010F0003F902F900895CF93C82F0E944900C3308E
:1011000011F1C43028F4C13091F0C230B0F409C0FC
:10111000C53029F1C530E8F0C63039F1C73081F566
:101120002AC081E460E040E00E94940029C081E48C
:1011300061E040E00E94940023C081E462E040E06E
:101140000E9494001DC081E463E040E00E9494008E
:1011500017C081E464E040E00E94940011C081E483
:1011600065E040E00E9494000BC081E466E040E04E
:101170000E94940005C081E467E040E00E94940072
:10118000CF9108950E945000089541E00E9494007C
:10119000089541E00E942501089540E00E94250144
:1011A00008950E941B0208958093B1006093B200DD
:1011B0004093B3002093B40008958091B100882338
:1011C00071F48091B2006091B30041E00E949400FC
:1011D0008091B2006091B40041E00E9494000895B3
:1011E0008091B100882371F48091B2006091B300C6
:1011F00041E00E9425018091B2006091B40040E07E
:101200000E94250108958091B100882371F4809196
:10121000B2006091B30040E00E9425018091B200CD
:101220006091B40041E00E94250108958091B100D1
:10123000882391F483E061E041E021E00E947E0A8E
:1012400082E463E041E00E9494008091B2006091EA
:10125000B40041E00E94940008959091B100992358
:1012600049F40E94ED0A8091B2006091B40040E020
:101270000E9425010895682F772767FD7095872FB5
:10128000972F0E94CF1220E030E040E05FE30E9401
:101290007F1320E030E044EB52E40E943412462FEA
:1012A000572F682F792FCB01BA0120E030E040ECB6
:1012B0005FE30E94CC110E94730D089540E00E94EC
:1012C000940008950E94B601089541E00E949400A0
:1012D000089541E00E942501089540E00E94250103
:1012E0000895882371F4442329F4862F61E00E9435
:1012F000F8030895413059F4862F61E00E94960367
:101300000895813021F4862F6FEF0E940503089520
:10131000CF93DF93CDB7DEB72A970FB6F894DEBF31
:101320000FBECDBF882371F4662329F4842F622F6A
:101330000E9425042CC0613051F5842F622F0E9439
:10134000C30325C0813019F52A3088F4DE011196D7
:10135000E0E8F0E08AE001900D928150E1F7FE01B3
:10136000E20FF11D842F61810E94240310C0DE0171
:101370001196EAE8F0E086E001900D928150E1F7E5
:10138000FE01E20FF11D842F61810E9424032A9641
:101390000FB6F894DEBF0FBECDBFDF91CF91089599
:1013A00082E464E041E00E94940082E465E041E070
:1013B0000E94940082E467E041E00E9494006C9AED
:1013C000689A6E9A82E464E041E00E9425010895E3
:1013D0006E9A82E466E041E00E9494000895CF9303
:1013E000C82F82E464E040E00E942501CFB9779BDA
:1013F000FECF8FB1CF9108958FB9779BFECF8FB17C
:101400000895CF93DF93EC018881882379F02196AA
:101410000E94EF098FEF92E5A7E081509040A04035
:10142000E1F700C000008991882391F7DF91CF9107
:101430000895CF93C82F0E944900C33011F1C430E2
:1014400028F4C13091F0C230B0F409C0C53029F1A0
:10145000C530E8F0C63039F1C73081F52AC081E4E3
:1014600060E040E00E94940029C081E461E040E037
:101470000E94940023C081E462E040E00E94940056
:101480001DC081E463E040E00E94940017C081E445
:1014900064E040E00E94940011C081E465E040E017
:1014A0000E9494000BC081E466E040E00E9494003A
:1014B00005C081E467E040E00E949400CF91089568
:1014C0000E945000BC0180E090E00E94CD122AE012
:1014D00037ED43E250E40E947F1320E030E04AE71A
:1014E00054E40E947F1320E030E040E256E40E9482
:1014F00034120E94A112862F972F08958093B50071
:101500002093B8006093B6004093B700089580918F
:10151000B500882339F483B78F7B83BF83B7877F78
:1015200083BF23C0813039F483B78F7B83BF83B7F8
:10153000886083BF1AC0823039F483B78F7B83BF42
:1015400083B7886083BF11C0833039F483B7806468
:1015500083BF83B7886083BF08C0843031F483B70A
:10156000806483BF83B7877F83BF93B78091B800C0
:10157000892B83BF8091B600882321F489B78160CD
:1015800089BF05C0813019F489B78E7F89BF8091EA
:10159000B700882321F489B7826089BF089581301C
:1015A00019F489B78D7F89BF08958CBF089582BFD4
:1015B000089582B70895BB9A382F20E0C90164E6E8
:1015C00070E00E94E213862F0E94D50A83B78061E3
:1015D00083BF83B78F7D83BF089593B7906493BF14
:1015E00093B7986093BFBB9A93B7916093BF93B73B
:1015F000946093BF382F20E0C90164E670E00E9438
:10160000E2136CBF83B78F7E83BF83B7806283BFD3
:101610000895BB9A382F20E0C90164E670E00E946B
:10162000E213862F0E94D50A83B7806183BF83B7F8
:10163000806283BF089590939100809390000895F5
:10164000909393008093920008951F920F920FB68B
:101650000F9211242F933F934F935F936F937F9338
:101660008F939F93AF93BF93EF93FF93E09192007B
:10167000F09193000995FF91EF91BF91AF919F91E8
:101680008F917F916F915F914F913F912F910F902B
:101690000FBE0F901F9018951F920F920FB60F92CA
:1016A00011242F933F934F935F936F937F938F9367
:1016B0009F93AF93BF93EF93FF93E0919000F091CE
:1016C00091000995FF91EF91BF91AF919F918F91FB
:1016D0007F916F915F914F913F912F910F900FBE2E
:1016E0000F901F9018958093C3002093C6006093BD
:1016F000C4004093C50008958091C300882339F445
:1017000085B58F7B85BD85B5877F85BD23C081303D
:1017100039F485B58F7B85BD85B5886085BD1AC0D8
:10172000823039F485B58F7B85BD85B5886085BDF0
:1017300011C0833039F485B5806485BD85B5886076
:1017400085BD08C0843031F485B5806485BD85B51C
:10175000877F85BD95B58091C600892B85BD809119
:10176000C400882321F489B7806489BF05C0813013
:1017700019F489B78F7B89BF8091C500882321F434
:1017800089B7806889BF0895813019F489B78F7748
:1017900089BF089583BD089584B5089584BD0895D3
:1017A0008F9A382F20E0C90164E670E00E94E213AE
:1017B000862F0E94CA0B85B5806185BD85B58F7D5A
:1017C00085BD08958F9A382F20E0C90164E670E046
:1017D0000E94E213862F0E94CA0B85B5806185BDE9
:1017E00085B5806285BD08958F9A382F20E0C901A4
:1017F00064E670E00E94E213862F0E94CA0B85B552
:10180000806185BD85B5806285BD08959093950002
:101810008093940008959093970080939600089584
:101820001F920F920FB60F9211242F933F934F9355
:101830005F936F937F938F939F93AF93BF93EF9338
:10184000FF93E0919600F09197000995FF91EF9139
:10185000BF91AF919F918F917F916F915F914F91C8
:101860003F912F910F900FBE0F901F901895EF9200
:101870000F938093BD006093BE004093BF00209300
:10188000C0000093C100E092C2000F91EF90089554
:101890008091BD00882369F48FB58E7F8FBD8FB591
:1018A0008D7F8FBD8EB5877F8EBD8EB58F7E8EBDB1
:1018B000D1C0813069F48FB581608FBD8FB58D7FC8
:1018C0008FBD8EB5877F8EBD8EB58F7E8EBDC2C01B
:1018D000823069F48FB58E7F8FBD8FB582608FBDEA
:1018E0008EB5877F8EBD8EB58F7E8EBDB3C08330A3
:1018F00069F48FB581608FBD8FB582608FBD8EB565
:10190000877F8EBD8EB58F7E8EBDA4C0843069F476
:101910008FB58E7F8FBD8FB58D7F8FBD8EB5886063
:101920008EBD8EB58F7E8EBD95C0853069F48FB526
:1019300081608FBD8FB58D7F8FBD8EB588608EBD68
:101940008EB58F7E8EBD86C0863069F48FB58E7F52
:101950008FBD8FB582608FBD8EB588608EBD8EB510
:101960008F7E8EBD77C0873069F48FB581608FBD63
:101970008FB582608FBD8EB588608EBD8EB58F7E2F
:101980008EBD68C0883069F48FB58E7F8FBD8FB5EE
:101990008D7F8FBD8EB5877F8EBD8EB580618EBDEC
:1019A00059C0893069F48FB581608FBD8FB58D7F47
:1019B0008FBD8EB5877F8EBD8EB580618EBD4AC0CE
:1019C0008A3069F48FB58E7F8FBD8FB582608FBDF1
:1019D0008EB5877F8EBD8EB580618EBD3BC08B304E
:1019E00069F48FB581608FBD8FB582608FBD8EB574
:1019F000877F8EBD8EB580618EBD2CC08C3069F422
:101A00008FB58E7F8FBD8FB58D7F8FBD8EB5886072
:101A10008EBD8EB580618EBD1DC08D3069F48FB5D1
:101A20008E7F8FBD8FB582608FBD8EB588608EBD75
:101A30008EB580618EBD0EC08E3061F48FB5816031
:101A40008FBD8FB582608FBD8EB588608EBD8EB51F
:101A500080618EBD9EB58091C200892B8EBD809124
:101A6000BE00882321F489B7846089BF05C0813016
:101A700019F489B78B7F89BF8091BF00882321F437
:101A800089B7806189BF05C0813019F489B78F7E1D
:101A900089BF8091C000823021F489B7886089BFF6
:101AA00005C0833019F489B7877F89BF8091C10051
:101AB000882321F489B7806289BF0895813019F4A1
:101AC00089B78F7D89BF08958ABD8BB58BBD089579
:101AD0008CB59DB5392F20E090E0822B932B089593
:101AE00097BD86BD08958D9A2FB522602FBD2EB566
:101AF00028602EBD2EB520612EBD20E030E04AE7E3
:101B000054E40E947F130E94A112DC01CB019BBD13
:101B10008ABD8FE19EE497BD86BD8EB581608EBD86
:101B20008FB580688FBD0895E9E9F0E0CF01449654
:101B300011921192E817F907D9F7CB01880F991F75
:101B4000880F991F680F791F7093AE006093AD00E6
:101B500081E08093AF0080E00895CF93F89471E026
:101B60007093AF007091B0007A3000F5009701F1EA
:101B7000623000F541155105F9F021153105F1F0FC
:101B8000FC013183208353834283648356834583DE
:101B90007783E72FF0E0EE0FFF1FE756FF4F9183AB
:101BA00080837F5F7093B000C0E009C0C3E007C0CE
:101BB000C2E005C0C2E003C0C2E001C0C2E080E0F4
:101BC00060E041E021E00E94730B87E30E94CE0BAE
:101BD00088B7806488BF78948C2FCF910895FC01DA
:101BE000F8940097C9F01182108213821282168233
:101BF000158282E08483A781B0E0AA0FBB1FA7569D
:101C0000BF4F11961C921E9217828091B000815096
:101C10008093B00080E001C082E078940895EF9254
:101C2000FF920F931F93CF93DF93F8948091AF00AF
:101C3000813071F5C9E9D0E00F2EF4E1EF2EFF24D9
:101C4000F02DEC0EFD1EE881F9813097D9F08581E9
:101C5000968118161906B4F00190F081E02D0995CF
:101C6000E881F9818581968122813381820F931FDA
:101C700096838583E881F9818481813019F4CF01CD
:101C80000E94EF0D2296CE15DF05E9F680E001C037
:101C900081E07894DF91CF911F910F91FF90EF90A9
:101CA0000895F89415BCE9E9F0E0CF01449611924B
:101CB0001192E817F907D9F7789480E008951F92F8
:101CC0000F920FB60F9211242F933F934F935F9370
:101CD0006F937F938F939F93AF93BF93EF93FF93F4
:101CE000409198004F5F40939800242F30E08091FE
:101CF000AD009091AE0028173907A9F4A9E9B0E02A
:101D00009D012C5E3F4F50E0ED91FD91309731F0F9
:101D100085819681019796838583452FA217B30706
:101D200099F74093980087E30E94CE0B7894FF9137
:101D3000EF91BF91AF919F918F917F916F915F9143
:101D40004F913F912F910F900FBE0F901F901895BC
:101D50008093C7006093C8004093C9002093CA00D5
:101D600008956091C8008091C70090E070E041E064
:101D700050E00E9494006091CA008091C90090E0F8
:101D800070E040E050E00E949400089588B78062BF
:101D900088BF1FBC81EC8EBD08B605FEFDCF26B501
:101DA00037B588B7806288BF81E88EBD08B605FE6A
:101DB000FDCF86B597B548B7406248BF41EC4EBDF0
:101DC00008B605FEFDCF46B557B5E8B7E062E8BFF7
:101DD0001EBC2817390730F48417950718F4BC0186
:101DE000621B730B80E090E00E94CD1220E03CEF7C
:101DF00045E057E40E947F1320E034E244E75BE4CF
:101E00000E9434120E94A112862F972F08958F925C
:101E1000AF92CF92EF920F931F93CF93DF93CDB7F3
:101E2000DEB79093CE008093CD00FC016083E091FB
:101E3000CD00F091CE004183E091CD00F091CE0035
:101E4000058716872787308BE282C382A48285822A
:101E50008B85868381E08087878380E0DF91CF91C7
:101E60001F910F91EF90CF90AF908F900895E091D8
:101E7000CD00F091CE00309771F0878360874115D7
:101E8000510559F02115310551F0548743873287A8
:101E9000218780E0089582E0089581E0089581E03F
:101EA0000895E091CD00F091CE00309709F4F9C18A
:101EB0002281222309F0F4C02081213009F045C09D
:101EC0003181332311F585859685A785B089880FE3
:101ED000991FAA1FBB1F880F991FAA1FBB1F9C0118
:101EE000AD01220F331F441F551F220F331F441F04
:101EF000551F60E072E18AE790E00E94F513DA0175
:101F0000C9010197A109B10937C03130F1F48585C4
:101F10009685A785B089880F991FAA1FBB1F880FB8
:101F2000991FAA1FBB1F9C01AD01220F331F441F25
:101F3000551F60E072E18AE790E00E94F513DA0134
:101F4000C9010197A109B10917C02223A9F4858508
:101F50009685A785B0899C01AD01220F331F441FD0
:101F6000551F60E072E18AE790E00E94F513DA0104
:101F7000C9010197A109B109492F5A2F6B2F772762
:101F800040BD89B9539AE091CD00F091CE002481F3
:101F90002230E1F0233028F4222341F0213069F58A
:101FA0000DC02330D9F0243041F520C0529820B51F
:101FB0002B7F20BD20B52D7F20BD1FC0529820B59E
:101FC0002B7F20BD20B5226020BD17C0529820B5C0
:101FD000246020BD20B52D7F20BD0FC0529820B5B4
:101FE000246020BD20B5226020BD07C0529A20B5D4
:101FF000246020BD20B5226020BDE091CD00F0918D
:10200000CE002081213021F42181213009F4599A18
:10201000E091CD00F091CE002581222339F420B546
:102020002F7E20BD20B52F7D20BD11C0213039F479
:1020300020B52F7E20BD20B5206220BD08C02230F3
:1020400031F420B5206120BD20B5206220BDE09193
:10205000CD00F091CE002681222321F420B5277FE8
:1020600020BD05C0213019F420B5286020BDE091C5
:10207000CD00F091CE002085222311F4579A03C0A1
:10208000213009F45798E091CD00F091CE002781DE
:10209000222311F4569A05C0213019F4569801C034
:1020A0005398E091CD00F091CE002381222309F0D6
:1020B000F5C02081213009F045C03181332311F56D
:1020C00085859685A785B089880F991FAA1FBB1F94
:1020D000880F991FAA1FBB1F9C01AD01220F331F40
:1020E000441F551F220F331F441F551F60E072E12C
:1020F0008AE790E00E94F513DA01C9010197A1096E
:10210000B10937C03130F1F485859685A785B0894E
:10211000880F991FAA1FBB1F880F991FAA1FBB1FDB
:102120009C01AD01220F331F441F551F60E072E177
:102130008AE790E00E94F513DA01C9010197A1092D
:10214000B10917C02223A9F485859685A785B08992
:102150009C01AD01220F331F441F551F60E072E147
:102160008AE790E00E94F513DA01C9010197A109FD
:10217000B109492F5A2F6B2F772740BD89B9549A3F
:10218000E091CD00F091CE0084818230E1F0833087
:1021900028F4882341F0813069F50DC08330D9F0EF
:1021A000843041F520C0529880B58B7F80BD80B5CA
:1021B0008D7F80BD1FC0529880B58B7F80BD80B55C
:1021C000826080BD17C0529880B5846080BD80B5A4
:1021D0008D7F80BD0FC0529880B5846080BD80B572
:1021E000826080BD07C0529A80B5846080BD80B592
:1021F000826080BDE091CD00F091CE008081813081
:1022000021F48181813009F4599AE091CD00F09157
:10221000CE008581882339F480B58F7E80BD80B55E
:102220008F7D80BD11C0813039F480B58F7E80BD37
:1022300080B5806280BD08C0823031F480B5806195
:1022400080BD80B5806280BDE091CD00F091CE0070
:102250008681882321F480B5877F80BD05C08130C9
:1022600019F480B5886080BDE091CD00F091CE007A
:102270008085882311F4579A03C0813009F4579858
:10228000E091CD00F091CE008781882311F4569A19
:102290000895813041F4569880E00895549880E084
:1022A000089582E0089580E008955D9BFECFE0915F
:1022B000CD00F091CE002481243021F42AB1917018
:1022C000922B9AB98CB90895FC01118210825F9B00
:1022D000FECF5A991BC0A091CD00B091CE001496AC
:1022E0008C911497843041F48AB190E082709070A0
:1022F00095958795108281832CB130E08081918102
:10230000822B932B9183808380E0089581E0089550
:10231000DC01CB01880F991FAA1FBB1F880F991FD3
:10232000AA1FBB1F9C01AD01220F331F441F551F65
:10233000220F331F441F551F60E072E18AE790E0CF
:102340000E94F5132150304030BD29B9539A549A58
:1023500086E880BD08955D9BFECF8CB908955F9B94
:10236000FECF8CB10895CF93DF93EC018881882351
:1023700079F021960E94AB118FEF90E7A2E0815097
:102380009040A040E1F700C000008991882391F7B8
:10239000DF91CF9108955058BB27AA270ED075C161
:1023A00066D130F06BD120F031F49F3F11F41EF470
:1023B0005BC10EF4E095E7FB51C1E92F77D180F3C3
:1023C000BA17620773078407950718F071F49EF532
:1023D0008FC10EF4E0950B2EBA2FA02D0B01B90181
:1023E00090010C01CA01A0011124FF27591B99F08B
:1023F000593F50F4503E68F11A16F040A22F232F97
:10240000342F4427585FF3CF469537952795A795E6
:10241000F0405395C9F77EF41F16BA0B620B730B8D
:10242000840BBAF09150A1F0FF0FBB1F661F771FFE
:10243000881FC2F70EC0BA0F621F731F841F48F4B3
:10244000879577956795B795F7959E3F08F0B3CF39
:102450009395880F08F09927EE0F97958795089523
:10246000D9D008F481E008950CD00FC107D140F015
:10247000FED030F021F45F3F19F0F0C0511139C1A6
:10248000F3C014D198F39923C9F35523B1F3951BE5
:10249000550BBB27AA2762177307840738F09F5F85
:1024A0005F4F220F331F441FAA1FA9F333D00E2EF4
:1024B0003AF0E0E830D091505040E695001CCAF761
:1024C00029D0FE2F27D0660F771F881FBB1F261726
:1024D00037074807AB07B0E809F0BB0B802DBF01F9
:1024E000FF2793585F4F2AF09E3F510568F0B6C012
:1024F00000C15F3FECF3983EDCF3869577956795D6
:10250000B795F7959F5FC9F7880F911D96958795A9
:1025100097F90895E1E0660F771F881FBB1F6217C8
:1025200073078407BA0720F0621B730B840BBA0B86
:10253000EE1F88F7E095089504D06894B111D9C0D2
:102540000895BCD088F09F5790F0B92F9927B751C4
:10255000A0F0D1F0660F771F881F991F1AF0BA9567
:10256000C9F712C0B13081F0C3D0B1E00895C0C046
:10257000672F782F8827B85F39F0B93FCCF386955D
:1025800077956795B395D9F73EF4909580957095BA
:1025900061957F4F8F4F9F4F0895E89409C097FB37
:1025A0003EF490958095709561957F4F8F4F9F4F2A
:1025B0009923A9F0F92F96E9BB279395F69587956E
:1025C00077956795B795F111F8CFFAF4BB0F11F431
:1025D00060FF1BC06F5F7F4F8F4F9F4F16C08823D8
:1025E00011F096E911C0772321F09EE8872F762F0E
:1025F00005C0662371F096E8862F70E060E02AF04F
:102600009A95660F771F881FDAF7880F969587953A
:1026100097F90895990F0008550FAA0BE0E8FEEF0F
:1026200016161706E807F907C0F012161306E40796
:10263000F50798F0621B730B840B950B39F40A268F
:1026400061F0232B242B252B21F408950A2609F46D
:10265000A140A6958FEF811D811D089597F99F6771
:1026600080E870E060E008959FEF80EC089500241A
:102670000A941616170618060906089500240A94E7
:1026800012161306140605060895092E0394000C6D
:1026900011F4882352F0BB0F40F4BF2B11F460FFFC
:1026A00004C06F5F7F4F8F4F9F4F089557FD905825
:1026B000440F551F59F05F3F71F04795880F97FB06
:1026C000991F61F09F3F79F08795089512161306C0
:1026D0001406551FF2CF4695F1DF08C016161706EF
:1026E0001806991FF1CF8695710561050894089524
:1026F000E894BB2766277727CB0197F908950BD07D
:10270000C4CFB5DF28F0BADF18F0952309F0A6CFC3
:10271000ABCF1124EECFCADFA0F3959FD1F3950F75
:1027200050E0551F629FF001729FBB27F00DB11D55
:10273000639FAA27F00DB11DAA1F649F6627B00DE5
:10274000A11D661F829F2227B00DA11D621F739FCE
:10275000B00DA11D621F839FA00D611D221F749FDC
:102760003327A00D611D231F849F600D211D822F23
:10277000762F6A2F11249F5750408AF0E1F088236A
:102780004AF0EE0FFF1FBB1F661F771F881F915077
:102790005040A9F79E3F510570F060CFAACF5F3F30
:1027A000ECF3983EDCF3869577956795B795F795AA
:1027B000E7959F5FC1F7FE2B880F911D9695879532
:1027C00097F9089597FB092E07260AD077FD04D0C4
:1027D0002ED006D000201AF4709561957F4F089591
:1027E000F6F7909581959F4F0895A1E21A2EAA1BA6
:1027F000BB1BFD010DC0AA1FBB1FEE1FFF1FA217B1
:10280000B307E407F50720F0A21BB30BE40BF50BAD
:10281000661F771F881F991F1A9469F76095709536
:10282000809590959B01AC01BD01CF010895AA1B35
:10283000BB1B51E107C0AA1FBB1FA617B70710F0AB
:10284000A61BB70B881F991F5A95A9F780959095DD
:10285000BC01CD010895AEE0B0E0E1E3F4E10C94F9
:10286000D9160D891E8986E08C831A8309838FEF20
:102870009FE79E838D83AE01475E5F4FCE01019639
:102880006F89788D0E944D14EF81F885E00FF11F5C
:1028900010822E96E4E00C94F516ADE0B0E0E3E58E
:1028A000F4E10C94CB163C017D876C875A01FC0146
:1028B00017821682838181FFC8C12E010894411CB2
:1028C000511CF3019381EC85FD8593FD859193FF68
:1028D0008191FD87EC87882309F4B3C1853241F4E7
:1028E00093FD859193FF8191FD87EC87853229F4D3
:1028F00090E0B3010E944116E4CFFF24EE2410E0E3
:102900001032B0F48B3269F08C3228F4803251F0FE
:10291000833271F40BC08D3239F0803349F4116089
:102920002CC01260146029C0186027C0106125C037
:1029300017FD2EC0282F20532A3098F416FF08C008
:102940008F2D880FF82EFF0CFF0CF80EF20E15C01D
:102950008E2D880FE82EEE0CEE0CE80EE20E1062C3
:102960000CC08E3221F416FD6CC1106406C08C368A
:1029700011F4106802C0883659F4EC85FD8593FD8A
:10298000859193FF8191FD87EC87882309F0B8CF6B
:10299000982F9554933018F09052933038F424E0E7
:1029A00030E0A20EB31E3FE339830FC0833631F00F
:1029B000833781F0833509F05AC022C0F501808148
:1029C000898322E030E0A20EB31E21E0C22ED12C7A
:1029D000420114C092E0292E312C2A0C3B1CF50137
:1029E0008080918016FF03C06F2D70E002C06FEFF2
:1029F0007FEFC4010E9436166C0151011F7715C08C
:102A000082E0282E312C2A0C3B1CF501808091801D
:102A100016FF03C06F2D70E002C06FEF7FEFC4019F
:102A20000E942B166C011068510113FD1CC006C0DA
:102A300080E290E0B3010E944116EA948E2D90E06E
:102A4000C816D906A8F30FC0F40117FD859117FF2A
:102A500081914F0190E0B3010E944116E110EA9488
:102A60000894C108D108C114D10471F7E7C08436B5
:102A700011F0893651F5F50117FF07C0808191816A
:102A8000A281B38124E030E008C080819181AA272F
:102A900097FDA095BA2F22E030E0A20EB31E012FC1
:102AA0000F76B7FF08C0B095A095909581959F4F80
:102AB000AF4FBF4F0068BC01CD01A2012AE030E05A
:102AC0000E946D16D82ED4183FC0853721F41F7E82
:102AD0002AE030E020C0197F8F36A9F0803720F43B
:102AE000883509F0AEC00BC0803721F0883709F077
:102AF000A8C001C0106114FF09C0146007C014FF12
:102B000008C0166006C028E030E005C020E130E0D3
:102B100002C020E132E0F50117FF07C0608171813A
:102B20008281938144E050E006C06081718180E041
:102B300090E042E050E0A40EB51EA2010E946D1686
:102B4000D82ED418012F0F7706FF09C00E7FDF148F
:102B500030F404FF06C002FD04C00F7E02C01D2D2C
:102B600001C01F2D802F90E004FF0CC0FE01ED0D71
:102B7000F11D2081203311F4097E09C002FF06C037
:102B80001E5F05C086789070009709F01F5F802E49
:102B9000992403FD12C000FF0DC0FD2C1E1550F43A
:102BA000FE0CF11A1E2D06C080E290E0B3010E94D7
:102BB00041161F5F1E15C0F304C01E1510F4E11A64
:102BC00001C0EE2484FE0FC080E390E0B3010E94B8
:102BD000411682FE1FC081FE03C088E590E010C050
:102BE00088E790E00DC0C40186789070009791F05E
:102BF00081FC02C080E201C08BE207FD8DE290E023
:102C0000B3010E94411606C080E390E0B3010E9428
:102C10004116FA94DF14C0F3DA94F201ED0DF11DC0
:102C2000808190E0B3010E944116DD20A9F706C023
:102C300080E290E0B3010E944116EA94EE20C1F7D1
:102C400040CEF3018681978102C08FEF9FEF2D96D2
:102C5000E2E10C94E716FC01059061507040011010
:102C6000D8F7809590958E0F9F1F0895FC016150B5
:102C7000704001900110D8F7809590958E0F9F1F9E
:102C800008950F931F93CF93DF938C01EB018B81FA
:102C900081FF1BC082FF0DC02E813F818C819D81F1
:102CA0002817390764F4E881F9810193F983E883EF
:102CB00006C0E885F985802F0995009731F48E814B
:102CC0009F8101969F838E8302C00FEF1FEFC80183
:102CD000DF91CF911F910F910895FA01AA27283013
:102CE00051F1203181F1E8946F936E7F6E5F7F4FD9
:102CF0008F4F9F4FAF4FB1E03ED0B4E03CD0670F55
:102D0000781F891F9A1FA11D680F791F8A1F911DA7
:102D1000A11D6A0F711D811D911DA11D20D009F4F7
:102D200068943F912AE0269F11243019305D319339
:102D3000DEF6CF010895462F4770405D4193B3E022
:102D40000FD0C9F7F6CF462F4F70405D4A3318F0C9
:102D5000495D31FD4052419302D0A9F7EACFB4E07A
:102D6000A6959795879577956795BA95C9F7009732
:102D70006105710508959B01AC010A2E06945795D3
:102D8000479537952795BA95C9F7620F731F841F2A
:102D9000951FA01D08952F923F924F925F926F92C0
:102DA0007F928F929F92AF92BF92CF92DF92EF92DB
:102DB000FF920F931F93CF93DF93CDB7DEB7CA1B5C
:102DC000DB0B0FB6F894DEBF0FBECDBF09942A8887
:102DD000398848885F846E847D848C849B84AA842F
:102DE000B984C884DF80EE80FD800C811B81AA81BC
:102DF000B981CE0FD11D0FB6F894DEBF0FBECDBF87
:082E0000ED010895F894FFCFE5
:102E08003738392F3435362A3132332D41303D2B7E
:102E18002564002D0000257325642E2530346400B8
:102E28003F065B4F666D7D077F6F771F395E79714F
:00000001FF
