:100000000C942A000C9447000C9447000C94470071
:100010000C9447000C9447000C9447000C94470044
:100020000C9447000C9447000C9447000C94470034
:100030000C9447000C9447000C9447000C94470024
:100040000C9447000C9447000C9447000C94470014
:100050000C94470011241FBECFE5D8E0DEBFCDBF12
:1000600010E0A0E6B0E0E8E8F1E002C005900D92F3
:10007000AC36B107D9F710E0ACE6B0E001C01D9294
:10008000AC36B107E1F70E9449000C94C2000C9411
:10009000000060E875E280E090E00E945D008FEF74
:1000A00092E5A7E081509040A040E1F700C0000039
:1000B00080E690E00E948800FFCFDC01CB01880F32
:1000C000991FAA1FBB1F880F991FAA1FBB1F9C0146
:1000D000AD01220F331F441F551F220F331F441F32
:1000E000551F60E072E18AE790E00E94A000215075
:1000F000304030BD29B9539A549A86E880BD08959E
:100100005D9BFECF8CB908955F9BFECF8CB10895A7
:10011000CF93DF93EC018881882379F021960E94A8
:1001200080008FEF90E7A2E081509040A040E1F77F
:1001300000C000008991882391F7DF91CF91089545
:10014000A1E21A2EAA1BBB1BFD010DC0AA1FBB1FDB
:10015000EE1FFF1FA217B307E407F50720F0A21B4D
:10016000B30BE40BF50B661F771F881F991F1A94BA
:1001700069F760957095809590959B01AC01BD01E4
:08018000CF010895F894FFCFB0
:0C0188005A61672047726F7570310000EB
:00000001FF
