:100000000C942A000C9447000C9447000C94470071
:100010000C9447000C9447000C9447000C94470044
:100020000C9447000C9447000C9447000C94470034
:100030000C9447000C9447000C9447000C94470024
:100040000C9447000C9447000C9447000C94470014
:100050000C94470011241FBECFE5D8E0DEBFCDBF12
:1000600010E0A0E6B0E0EEE6F9E002C005900D92E7
:10007000A036B107D9F710E0A0E6B0E001C01D92AC
:10008000A036B107E1F70E9462030C94B5040C940A
:100090000000823451F1833420F4813409F07BC0B4
:1000A00007C0833409F43EC0843409F074C057C0DB
:1000B000413069F42AB381E090E0AC0102C0440F02
:1000C000551F6A95E2F7BA01622B6ABB08952AB3FD
:1000D00081E090E0AC0102C0440F551F6A95E2F741
:1000E000BA01609562236ABB0895413069F427B371
:1000F00081E090E0AC0102C0440F551F6A95E2F721
:10010000BA01622B67BB089527B381E090E0AC0190
:1001100002C0440F551F6A95E2F7BA016095622349
:1001200067BB0895413069F424B381E090E0AC01ED
:1001300002C0440F551F6A95E2F7BA01622B64BBF7
:10014000089524B381E090E0AC0102C0440F551F34
:100150006A95E2F7BA016095622364BB0895413065
:1001600069F421B381E090E0AC0102C0440F551F57
:100170006A95E2F7BA01622B61BB089521B381E071
:1001800090E0AC0102C0440F551F6A95E2F7BA0136
:100190006095622361BB0895823451F1833420F469
:1001A000813409F07BC007C0833409F43EC0843435
:1001B00009F074C057C0413069F42BB381E090E07E
:1001C000AC0102C0440F551F6A95E2F7BA01622BD9
:1001D0006BBB08952BB381E090E0AC0102C0440FEB
:1001E000551F6A95E2F7BA01609562236BBB0895CB
:1001F000413069F428B381E090E0AC0102C0440FC3
:10020000551F6A95E2F7BA01622B68BB089528B3BF
:1002100081E090E0AC0102C0440F551F6A95E2F7FF
:10022000BA016095622368BB0895413069F425B333
:1002300081E090E0AC0102C0440F551F6A95E2F7DF
:10024000BA01622B65BB089525B381E090E0AC0153
:1002500002C0440F551F6A95E2F7BA016095622308
:1002600065BB0895413069F422B381E090E0AC01B0
:1002700002C0440F551F6A95E2F7BA01622B62BBB8
:10028000089522B381E090E0AC0102C0440F551FF5
:100290006A95E2F7BA016095622362BB08958234E1
:1002A000F1F0833420F4813409F04FC006C0833468
:1002B00041F1843409F049C036C029B381E090E0AF
:1002C000062E02C0880F991F0A94E2F730E08223BD
:1002D000932302C0959587956A95E2F7089526B312
:1002E00081E090E0062E02C0880F991F0A94E2F781
:1002F00030E08223932302C0959587956A95E2F7B3
:10030000089523B381E090E0062E02C0880F991F64
:100310000A94E2F730E08223932302C095958795F3
:100320006A95E2F7089520B381E090E0062E02C0BE
:10033000880F991F0A94E2F730E08223932302C0CA
:10034000959587956A95E2F7089580E0089582343F
:10035000B9F0833418F48134C9F505C08334E9F069
:100360008434A1F527C02BB381E090E0AC0102C03A
:10037000440F551F6A95E2F7BA0162276BBB0895D7
:1003800028B381E090E0AC0102C0440F551F6A958C
:10039000E2F7BA01622768BB089525B381E090E0D7
:1003A000AC0102C0440F551F6A95E2F7BA016227FB
:1003B00065BB089522B381E090E0AC0102C0440F18
:1003C000551F6A95E2F7BA01622762BB089582342D
:1003D00061F0833418F4813469F405C0833439F052
:1003E000843441F406C06ABB089567BB089564BBBA
:1003F000089561BB0895823461F0833418F4813428
:1004000069F405C0833439F0843441F406C06BBB11
:10041000089568BB089565BB089562BB0895823452
:1004200061F0833418F4813471F405C0833439F0F9
:10043000843449F406C089B3089586B3089583B31C
:10044000089580B3089580E00895823451F1833493
:1004500020F4813409F07BC007C0833409F43EC026
:10046000843409F074C057C0413069F42BB381E083
:1004700090E0AC0102C0440F551F6A95E2F7BA0143
:10048000622B6BBB08952BB381E090E0AC0102C0FE
:10049000440F551F6A95E2F7BA01609562236BBB62
:1004A0000895413069F428B381E090E0AC0102C0C6
:1004B000440F551F6A95E2F7BA01622B68BB089595
:1004C00028B381E090E0AC0102C0440F551F6A954B
:1004D000E2F7BA016095622368BB0895413069F480
:1004E00025B381E090E0AC0102C0440F551F6A952E
:1004F000E2F7BA01622B65BB089525B381E090E075
:10050000AC0102C0440F551F6A95E2F7BA0160952D
:10051000622365BB0895413069F422B381E090E025
:10052000AC0102C0440F551F6A95E2F7BA01622B75
:1005300062BB089522B381E090E0AC0102C0440F99
:10054000551F6A95E2F7BA016095622362BB089570
:100550006F70823481F0833418F48134F1F405C073
:10056000833479F08434C9F412C08BB3807F8BBBA1
:100570008BB3862B8BBB88B3807F88BB88B3862BDD
:1005800088BB85B3807F85BB85B3862B85BB82B353
:10059000807F82BB82B3682B62BB08956295607FC7
:1005A000823481F0833418F48134F1F405C083344B
:1005B00079F08434C9F412C08BB38F708BBB8BB3CA
:1005C000862B8BBB88B38F7088BB88B3862B88BB88
:1005D00085B38F7085BB85B3862B85BB82B38F7047
:1005E00082BB82B3682B62BB08959B01AC0160E0C3
:1005F00072E18AE790E00E949304DA01C901409712
:10060000A109B109B695A7959795879580B911B8B5
:10061000089584EA86BF06B607FEFDCF81B1887FC4
:100620008830E1F7089584EA86BF06B607FEFDCF5D
:1006300081B1887F8031E1F7089583B984E886BF6E
:1006400006B607FEFDCF81B1887F8831E1F70895B6
:1006500083B984E886BF06B607FEFDCF81B1887FE7
:100660008034E1F7089583B984E886BF06B607FEB3
:10067000FDCF81B1887F8832E1F7089584E986BF94
:10068000089584E886BF06B607FEFDCF81B1887F56
:100690008835E1F783B1089582B9089584EC86BF67
:1006A00006B607FEFDCF81B1887F8036E1F784EC86
:1006B00086BF06B607FEFDCF81B1887F8038E1F79F
:1006C00083B108950E94D80360E573EC80E090E068
:1006D0000E94F5028FEF94E3ACE081509040A0407F
:1006E000E1F700C000000E94090380EA0E941D0398
:1006F00080E00E94330382E30E9433030E943E03A2
:100700008FEF91EEA4E081509040A040E1F700C04F
:1007100000000E94090380EA0E941D0380E00E94FD
:1007200033030E94130381EA0E9428030E944103BD
:10073000C82F0E943E038C2F0E943704FFCF82E413
:1007400060E041E00E94CC008FE99FE00197F1F763
:1007500000C0000082E460E040E00E94CC008FE92D
:100760009FE00197F1F700C000000895CF93C82FD4
:10077000682F62956F7081E40E94CE0282E461E08E
:1007800040E00E94CC000E949F0381E46C2F0E94F5
:10079000CE0282E461E040E00E94CC000E949F0310
:1007A0008FEC97E00197F1F700C00000CF9108951A
:1007B0008FEF91EEA4E081509040A040E1F700C09F
:1007C000000081E464E041E00E94490081E465E0CA
:1007D00041E00E94490081E466E041E00E94490056
:1007E00081E467E041E00E94490082E460E041E08A
:1007F0000E94490082E462E041E00E94490082E4F4
:1008000061E041E00E94490082E462E040E00E9431
:10081000CC0082E00E94B603AFE1BEE41197F1F78D
:1008200000C0000088E20E94B6038FEC97E00197B9
:10083000F1F700C000008EE00E94B603AFECB7E015
:100840001197F1F700C0000081E00E94B6038FE12C
:100850009EE40197F1F700C0000086E00E94B60315
:10086000AFECB7E01197F1F700C000000895CF9307
:10087000C82F682F62956F7081E40E94CE0282E4D7
:1008800061E041E00E94CC000E949F0381E46C2F54
:100890000E94CE0282E461E041E00E94CC000E940E
:1008A0009F038FEC97E00197F1F700C00000CF9114
:1008B0000895CF93DF93EC018881882331F021964E
:1008C0000E94370489918823D9F7DF91CF91089549
:1008D00081E00E94B6038FE19EE40197F1F700C02A
:1008E00000000895282F2150223070F4613170F4F7
:1008F000662371F0813019F4962F91580AC0823026
:1009000041F4962F915405C090E803C090E801C0CF
:1009100090E8892F0E94B6038FEC97E00197F1F7DA
:1009200000C000000895A1E21A2EAA1BBB1BFD0106
:100930000DC0AA1FBB1FEE1FFF1FA217B307E407BE
:10094000F50720F0A21BB30BE40BF50B661F771F16
:10095000881F991F1A9469F76095709580959095F6
:0E0960009B01AC01BD01CF010895F894FFCFBB
:00000001FF
