:100000000C942A000C9447000C9447000C94470071
:100010000C9474090C949B090C9447000C944700B1
:100020000C9447000C9447000C94A0080C94C7084B
:100030000C9447000C9447000C9447000C94470024
:100040000C9447000C9447000C9447000C94470014
:100050000C94470011241FBECFE5D8E0DEBFCDBF12
:1000600010E0A0E6B0E0E8ECF1E202C005900D92ED
:10007000AE39B107D9F710E0AEE9B0E001C01D928A
:10008000AC3BB107E1F70E945C0B0C94E2100C94BE
:1000900000003E9A3F9A379A329A319A30980895E2
:1000A00097B1907E97B997B18770892B87B9369AA7
:1000B000349BFECF349A84B190E045B1342F20E0D8
:1000C000822B932B089540E00E947C0008950E94AB
:1000D0003A0108958EBB9FBB6DBBE29AE19AE1990C
:1000E000FECF08958EBB9FBBE09A8DB308951ABAD8
:1000F00017BA14BA11BA0895843409F44BC0853480
:1001000040F4823429F18334A0F5813409F052C0DF
:100110000EC08236E9F0833620F4813609F04AC0F9
:1001200006C0833631F1843609F044C033C02AB3A7
:1001300081E090E002C0880F991F6A95E2F7413094
:1001400019F4282B2ABB0895809582238ABB089531
:1001500027B381E090E002C0880F991F6A95E2F70B
:10016000413019F4282B27BB08958095822387BB43
:10017000089524B381E090E002C0880F991F6A952A
:10018000E2F7413019F4282B24BB0895809582238F
:1001900084BB089521B381E090E002C0880F991FCD
:1001A0006A95E2F7413019F4282B21BB0895809518
:1001B000822381BB0895843409F44BC0853440F414
:1001C000823429F18334A0F5813409F052C00EC085
:1001D0008236E9F0833620F4813609F04AC006C041
:1001E000833631F1843609F044C033C02BB381E04B
:1001F00090E002C0880F991F6A95E2F7413019F428
:10020000282B2BBB0895809582238BBB089528B3A0
:1002100081E090E002C0880F991F6A95E2F74130B3
:1002200019F4282B28BB08958095822388BB089554
:1002300025B381E090E002C0880F991F6A95E2F72C
:10024000413019F4282B25BB08958095822385BB66
:10025000089522B381E090E002C0880F991F6A954B
:10026000E2F7413019F4282B22BB089580958223B0
:1002700082BB08958434D9F0853438F4823499F0FF
:10028000833498F4813429F50CC0823661F08336CA
:1002900018F48136F1F405C0833639F08436C9F498
:1002A00006C029B305C026B303C023B301C020B3E1
:1002B00081E090E0062E02C0880F991F0A94E2F7B1
:1002C00030E08223932302C0959587956A95E2F7E3
:1002D000089580E008958434B1F1853438F482348F
:1002E000E1F0833428F58134C1F50CC08236A9F0E1
:1002F000833618F4813689F505C08336C9F0843613
:1003000061F521C02BB381E090E002C0880F991FF6
:100310006A95E2F728272BBB089528B381E090E087
:1003200002C0880F991F6A95E2F7282728BB089515
:1003300025B381E090E002C0880F991F6A95E2F72B
:10034000282725BB089522B381E090E002C0880FE2
:10035000991F6A95E2F7282722BB0895843409F48F
:100360004BC0853440F4823429F18334A0F58134C4
:1003700009F055C00EC08236E9F0833620F481368C
:1003800009F04DC006C0833631F1843609F047C00C
:1003900033C02BB381E090E002C0880F991F6A95AB
:1003A000E2F7413019F4282B2BBB32C08095822311
:1003B0008BBB089528B381E090E002C0880F991F9D
:1003C0006A95E2F7413019F4282B28BB21C08095AB
:1003D000822388BB089525B381E090E002C0880F96
:1003E000991F6A95E2F7413019F4282B25BB10C0FC
:1003F0008095822385BB089522B381E090E002C0FE
:10040000880F991F6A95E2F7413031F4282B22BBFF
:1004100080B78B7F80BF08958095822382BB08952B
:100420008434D9F0853438F4823499F0833498F4E4
:100430008134A1F40CC0823661F0833618F4813621
:1004400069F405C0833639F0843641F406C06ABBCE
:10045000089567BB089564BB089561BB0895843413
:10046000D9F0853438F4823499F0833498F48134A7
:10047000A1F40CC0823661F0833618F4813669F439
:1004800005C0833639F0843641F406C06BBB08954D
:1004900068BB089565BB089562BB0895843409F173
:1004A000853438F48234A9F08334B8F48134E1F42B
:1004B0000CC0823671F0833618F48136A9F405C079
:1004C000833659F0843681F40CC08BB380958BBB96
:1004D000089588B3809588BB089585B3809585BBC2
:1004E000089582B3809582BB0895CF93DF930F92D6
:1004F000CDB7DEB719828434D9F0853438F482342C
:1005000099F0833498F48134A9F40CC0823661F0F8
:10051000833618F4813671F405C0833639F0843699
:1005200049F406C089B305C086B303C083B301C0D4
:1005300080B389830F90DF91CF910895CF93C82F17
:10054000613091F464E041E00E947C008C2F65E012
:1005500041E00E947C008C2F66E041E00E947C001C
:100560008C2F67E041E011C064E040E00E947C0015
:100570008C2F65E040E00E947C008C2F66E040E01C
:100580000E947C008C2F67E040E00E947C00CF91AD
:1005900008956295607F843451F1853438F4823453
:1005A000C1F08334E8F4813441F50CC0823689F01F
:1005B000833618F4813609F505C0833689F0843610
:1005C000E1F415C08BB38F708BBB8BB3862B8BBBC9
:1005D000089588B38F7088BB88B3862B88BB089535
:1005E00085B38F7085BB85B3862B85BB089582B399
:1005F0008F7082BB82B3862B82BB0895CF93C82FA6
:10060000613091F460E041E00E947C008C2F61E059
:1006100041E00E947C008C2F62E041E00E947C005F
:100620008C2F63E041E011C060E040E00E947C005C
:100630008C2F61E040E00E947C008C2F62E040E063
:100640000E947C008C2F63E040E00E947C00CF91F0
:1006500008956F70843451F1853438F48234C1F0D8
:100660008334E8F4813441F50CC0823689F0833656
:1006700018F4813609F505C0833689F08436E1F433
:1006800015C08BB3807F8BBB8BB3862B8BBB089540
:1006900088B3807F88BB88B3862B88BB089585B3D9
:1006A000807F85BB85B3862B85BB089582B3807F11
:1006B00082BB82B3862B82BB0895CF93C82F6FE095
:1006C0000E9410028C2F64E041E00E94AE018C2F4A
:1006D00065E041E00E94AE018C2F66E041E00E949F
:1006E000AE018C2F67E041E00E94AE01CF910895EA
:1006F0000F931F93CF93DF93CDB7DEB761970FB6FC
:10070000F894DEBF0FBECDBF182FDE011196EDE6C7
:10071000F0E080E101900D928150E1F700E0812F3F
:1007200060E041E00E94DB00812F61E041E00E9437
:10073000DB00812F62E041E00E94DB00812F63E05B
:1007400041E00E94DB00812F602F40E00E94DB002F
:1007500090E0692F6C5F812F998B0E943A019989F3
:10076000882361F4E02FF0E0EE0FFF1FEE0FFF1F74
:10077000E90FF11DEC0FFD1F818107C09F5F9430D1
:1007800041F70F5F043059F68FEF61960FB6F8947A
:10079000DEBF0FBECDBFDF91CF911F910F910895A6
:1007A000CF93DF93D82FC62F41E00E94DB008FE963
:1007B0009FE00197F1F700C000008D2F6C2F40E003
:1007C0000E94DB00DF91CF910895AF92CF92EF921C
:1007D0000F93CF93DF93962FC42FD22F813071F4D4
:1007E000842F6E2D0E942F028D2F602F40E00E94DB
:1007F000DB008C2D6A2D0E94D00334C06E2D6295D3
:100800006F70842F913081F40E94C9028D2F602F68
:1008100040E00E94DB008C2D6A2D0E94D0038C2FBB
:100820006E2D0E94C9020FC00E9429038D2F602FD8
:1008300040E00E94DB008C2D6A2D0E94D0038C2F9B
:100840006E2D0E9429038D2F602F40E00E94DB0057
:100850008C2D6A2D0E94D0038FEC97E00197F1F761
:1008600000C00000DF91CF910F91EF90CF90AF903B
:1008700008957F928F929F92AF92BF92CF92DF9214
:10088000EF92FF920F931F93CF93DF93CDB7DEB715
:10089000182FF62E942E722E8FEF91EEA4E0815039
:1008A0009040A040E1F700C00000822F602F41E09F
:1008B0000E947C008E2D6C2D41E00E947C008A2DD0
:1008C000682D41E00E947C001130E9F5892D6FEF21
:1008D0000E9410028E2D6C2D40E00E94DB00AFE2E2
:1008E000B5E71197F1F700C0000081E06F2D492DA9
:1008F000272D18E3E12ECA2CA82C0E94E5038FECCB
:1009000097E00197F1F700C0000081E06F2D492DBD
:10091000272D9EE0E92E0E94E503AFECB7E011978A
:10092000F1F700C0000081E06F2D492D272DEE2446
:10093000E3940E94E5038FE19EE40197F1F700C084
:10094000000081E096C0B1E0892D61E0FB1609F05E
:100950004EC00E949E028E2D6C2D40E00E94DB0056
:10096000812F61E0492D272DE2E0EE2ECA2CA82C24
:100970000E94E5038FE295E70197F1F700C00000C0
:10098000812F61E0492D272DF8E2EF2E0E94E5032B
:10099000AFECB7E01197F1F700C00000812F61E0E4
:1009A000492D272DAEE0EA2E0E94E5038FEC97E05B
:1009B0000197F1F700C00000812F61E0492D272D3C
:1009C000EE24E3940E94E503AFE1BEE41197F1F752
:1009D00000C00000812F61E0492D272DB6E0EB2EED
:1009E0000E94E5038FEC97E00197F1F74DC00E945C
:1009F000FE028E2D6C2D40E00E94DB00812F6F2DBA
:100A0000492D272D32E0E32ECA2CA82C0E94E503A5
:100A1000AFE2B5E71197F1F700C00000812F6F2D0D
:100A2000492D272D58E2E52E0E94E5038FEC97E033
:100A30000197F1F700C00000812F6F2D492D272D60
:100A40007EE0E72E0E94E503AFECB7E01197F1F7E7
:100A500000C00000812F6F2D492D272DEE24E39437
:100A60000E94E5038FE19EE40197F1F700C00000CA
:100A7000812F6F2D492D272D96E0E92E0E94E50349
:100A8000AFECB7E01197F1F700C00000DF91CF9114
:100A90001F910F91FF90EF90DF90CF90BF90AF909C
:100AA0009F908F907F900895AF92CF92EF920F9387
:100AB0009E2DAC2CEE24E394C92E0E94E5038FE119
:100AC0009EE40197F1F700C000000F91EF90CF90E6
:100AD000AF9008958F92AF92CF92EF920F93CF93F2
:100AE000DF93CDB7DEB75E2D3C2D7A2DE82DFA2DA4
:100AF000F150F33070F4E13160F4882051F071303E
:100B000019F4982D915806C0723021F4982D915403
:100B100001C090E8E92EC52EA32E0E94E5038FECBC
:100B200097E00197F1F700C00000DF91CF910F919E
:100B3000EF90CF90AF908F900895AF92CF92EF92B9
:100B40000F93CF93DF93962FC42FD22F813029F4A8
:100B5000842F6A2D0E942F0225C06A2D62956F7026
:100B6000842F913081F40E94C9028D2F602F41E0C3
:100B70000E94DB008E2D6C2D0E94D0038C2F6A2DDD
:100B80000E94C9020FC00E9429038D2F602F41E0EF
:100B90000E94DB008E2D6C2D0E94D0038C2F6A2DBD
:100BA0000E9429038D2F602F41E00E94DB008E2DD3
:100BB0006C2D0E94D0038FEC97E00197F1F700C0F5
:100BC0000000DF91CF910F91EF90CF90AF900895FB
:100BD0006F927F928F929F92AF92BF92CF92DF924D
:100BE000EF92FF920F931F93CF93DF93F82ED62EA1
:100BF000942E822ED02FCE2D1C2D350109C08F2D85
:100C00006D2D492D282D0D2FEC2EC12E0E949D05F6
:100C1000F301A1903F01AA2091F7DF91CF911F919D
:100C20000F91FF90EF90DF90CF90BF90AF909F908B
:100C30008F907F906F9008956F927F928F929F9286
:100C4000AF92BF92CF92EF920F931F93CF93DF9308
:100C5000CDB7DEB72A970FB6F894DEBF0FBECDBF73
:100C6000182FD501C401EDB7FEB738970FB6F89429
:100C7000FEBF0FBEEDBF6DB67EB60894611C711C41
:100C80005E010894A11CB11CB282A1823DE7832EB3
:100C900030E0932EF3019382828284839583A6832E
:100CA000B7832A87498768870E940B0E8DB79EB746
:100CB00008960FB6F8949EBF0FBE8DBF812F688532
:100CC00049852A850E94E8052A960FB6F894DEBF6A
:100CD0000FBECDBFDF91CF911F910F91EF90CF90BD
:100CE000BF90AF909F908F907F906F9008952F92BC
:100CF0003F924F925F926F927F928F929F92AF92AC
:100D0000BF92CF92DF92EF92FF920F931F93CF93F8
:100D1000DF93CDB7DEB761970FB6F894DEBF0FBE95
:100D2000CDBF182FF62ED42E298BC501B40120E09B
:100D300030E0A9010E94100C87FF09C0B7FAB094F7
:100D4000B7F8B09450E8452E50E0552E04C042E864
:100D5000442E40E0542EC501B4010E947C0C2DB7F6
:100D60003EB72E5030400FB6F8943EBF0FBE2DBF99
:100D70006DB67EB60894611C711C1E010894211C7E
:100D8000311CEDB7FEB73282218223E830E0F30157
:100D90003383228355824482668377838087918759
:100DA0000E94AF0C9B01AC01C501B4010E94AB0BCA
:100DB00020E030E44CE156E40E945F0D0E947C0C80
:100DC000DC01CB01F30182879387A487B5870E945A
:100DD0000B0E2DB73EB7225F3F4F0FB6F8943EBFC4
:100DE0000FBE2DBF812F6F2D4D2D298951010E94DE
:100DF000E80561960FB6F894DEBF0FBECDBFDF9158
:100E0000CF911F910F91FF90EF90DF90CF90BF9007
:100E1000AF909F908F907F906F905F904F903F909A
:100E20002F900895CF93DF930F92CDB7DEB78983CC
:100E30000E94490089818330C9F0843028F48130D0
:100E400079F0823080F409C08530B1F0853088F0C7
:100E50008630A9F08730D9F415C081E460E014C071
:100E600081E461E011C081E462E00EC081E463E0EE
:100E70000BC081E464E008C081E465E005C081E462
:100E800066E002C081E467E040E00E947C000F90D1
:100E9000DF91CF9108950E945000089541E00E9493
:100EA0007C00089541E00E94DB00089540E00E942C
:100EB000DB0008950E946B01089540E00E947C00D1
:100EC00008950E943A01089541E00E947C0008952F
:100ED00041E00E94DB00089540E00E94DB0008959D
:100EE000982F862F992361F4442321F461E00E9416
:100EF000FE020895413049F461E00E949E02089587
:100F0000913019F46FEF0E9410020895CF93DF9390
:100F1000CDB7DEB72A970FB6F894DEBF0FBECDBFB0
:100F2000982F362F842F622F992351F4332319F4ED
:100F30000E94290320C03130F1F40E94C9021BC075
:100F40009130C9F4DE0111962A3040F4EDE8F0E06A
:100F50009AE001900D929150E1F707C0E7E9F0E0C7
:100F600096E001900D929150E1F7FE01E60FF11D20
:100F700061810E942F022A960FB6F894DEBF0FBE41
:100F8000CDBFDF91CF910895CF93DF930F92CDB76F
:100F9000DEB789830E94490089818330C9F084309B
:100FA00028F4813079F0823080F409C08530B1F0C6
:100FB000853088F08630A9F08730D9F415C081E4F7
:100FC00060E014C081E461E011C081E462E00EC021
:100FD00081E463E00BC081E464E008C081E465E083
:100FE00005C081E466E002C081E467E040E00E9461
:100FF0007C000F90DF91CF9108950E945000BC01BA
:1010000080E090E00E94AD0C2AE037ED43E250E42E
:101010000E945F0D20E030E04AE754E40E945F0D3B
:1010200020E030E040E256E40E94140C0E94810C63
:10103000CB0108958093A6002093A9006093A70098
:101040004093A80008958091A600882319F483B7DF
:101050008F7B13C0813011F0823019F483B78F7BFE
:1010600004C0833031F483B7806483BF83B7886062
:1010700007C0843031F483B7806483BF83B7877F30
:1010800083BF83B79091A900892B83BF8091A7006C
:10109000882319F489B7816004C0813019F489B7B5
:1010A0008E7F89BF8091A800882321F489B7826050
:1010B00089BF0895813019F489B78D7F89BF08955C
:1010C0008CBF089582BF089582B70895BB9A382FC8
:1010D00020E0C90164E670E00E94C20D6CBF83B7D6
:1010E000806183BF83B78F7D83BF0895BB9A382FFC
:1010F00020E0C90164E670E00E94C20D6CBF83B7B6
:10110000806183BF83B7806283BF0895BB9A382F05
:1011100020E0C90164E670E00E94C20D6CBF83B795
:10112000806183BF83B7806283BF089590939F00DF
:1011300080939E0008959093A1008093A00008954D
:101140001F920F920FB60F9211242F933F934F933C
:101150005F936F937F938F939F93AF93BF93EF931F
:10116000FF93E091A000F091A1000995FF91EF910C
:10117000BF91AF919F918F917F916F915F914F91AF
:101180003F912F910F900FBE0F901F9018951F92B7
:101190000F920FB60F9211242F933F934F935F93AB
:1011A0006F937F938F939F93AF93BF93EF93FF932F
:1011B000E0919E00F0919F000995FF91EF91BF9102
:1011C000AF919F918F917F916F915F914F913F91DF
:1011D0002F910F900FBE0F901F9018958093B8001D
:1011E0002093BB006093B9004093BA0008958091AA
:1011F000B800882319F485B58F7B13C0813011F0B6
:10120000823019F485B58F7B04C0833031F485B505
:10121000806485BD85B5886007C0843031F485B5AC
:10122000806485BD85B5877F85BD85B59091BB0000
:10123000892B85BD8091B900882319F489B7806412
:1012400004C0813019F489B78F7B89BF8091BA00BF
:10125000882321F489B7806889BF0895813019F403
:1012600089B78F7789BF089583BD089584B50895A0
:1012700084BD08958F9A382F20E0C90164E670E09C
:101280000E94C20D63BD85B5806185BD85B58F7D2A
:1012900085BD08958F9A382F20E0C90164E670E07B
:1012A0000E94C20D63BD85B5806185BD85B5806234
:1012B00085BD08958F9A382F20E0C90164E670E05B
:1012C0000E94C20D63BD85B5806185BD85B5806214
:1012D00085BD08959093A3008093A20008959093F4
:1012E000A5008093A40008951F920F920FB60F924D
:1012F00011242F933F934F935F936F937F938F931B
:101300009F93AF93BF93EF93FF93E091A400F0916D
:10131000A5000995FF91EF91BF91AF919F918F919A
:101320007F916F915F914F913F912F910F900FBEE1
:101330000F901F9018951F920F920FB60F921124C5
:101340002F933F934F935F936F937F938F939F93CD
:10135000AF93BF93EF93FF93E091A200F091A300AE
:101360000995FF91EF91BF91AF919F918F917F91DF
:101370006F915F914F913F912F910F900FBE0F9002
:101380001F901895EF920F938093AE006093AF007B
:101390004093B0002093B1000093B200E092B300FC
:1013A0000F91EF9008958091AE00882319F48FB5C6
:1013B0008E7F04C0813061F48FB581608FBD8FB5A1
:1013C0008D7F8FBD8EB5877F8EBD8EB58F7E61C0C0
:1013D000823019F48FB58E7F04C0833031F48FB51D
:1013E00081608FBD8FB58260ECCF843019F48FB5EA
:1013F0008E7F04C0853049F48FB581608FBD8FB575
:101400008D7F8FBD8EB58860DFCF863019F48FB5A4
:101410008E7F04C0873031F48FB581608FBD8FB56A
:101420008260EFCF883019F48FB58E7F04C0893089
:1014300049F48FB581608FBD8FB58D7F8FBD8EB51F
:10144000877F24C08A3019F48FB58E7F04C08B301B
:1014500031F48FB581608FBD8FB58260EFCF8C3056
:1014600031F48FB58E7F8FBD8FB58D7F0CC08D30E1
:1014700019F48FB58E7F04C08E3061F48FB5816012
:101480008FBD8FB582608FBD8EB588608EBD8EB5E5
:1014900080618EBD8EB59091B300892B8EBD8091F9
:1014A000AF00882319F489B7846004C0813019F42F
:1014B00089B78B7F89BF8091B000882319F489B7E1
:1014C000806104C0813019F489B78F7E89BF809113
:1014D000B100823019F489B7886004C0833019F4F0
:1014E00089B7877F89BF8091B200882321F489B7AB
:1014F000806289BF0895813019F489B78F7D89BFD3
:1015000008958ABD8BB58BBD08958CB59DB5392FD7
:1015100020E090E0822B932B089528B7206228BF0B
:101520001FBC21EC2EBD08B605FEFDCFA6B5B0E070
:1015300027B5522F40E0A42BB52B38B7306238BF07
:1015400021E82EBD08B605FEFDCFE6B5F0E027B5D3
:10155000522F40E0E42BF52B38B7306238BF21EC36
:101560002EBD08B605FEFDCF46B527B538B73062AB
:1015700038BF1EBCAE17BF07A0F450E0722F60E06A
:10158000462B572BE417F50760F44A1B5B0B9A01B7
:1015900040E050E060E072E18AE790E00E94D50D03
:1015A000C901089588B7806288BF1FBC81EC8EBDD9
:1015B00008B605FEFDCF66B570E027B5922F80E036
:1015C000682B792B88B7806288BF81E88EBD08B60A
:1015D00005FEFDCF46B550E027B5922F80E0482BA1
:1015E000592B88B7806288BF81EC8EBD08B605FE96
:1015F000FDCF86B5A7B598B7906298BF1EBC64179B
:10160000750758F490E03A2F20E0822B932B48176F
:10161000590718F4FA01E61BF70BCF0108958093E0
:10162000B4006093B5004093B6002093B7000895CE
:101630006091B5008091B40090E070E041E050E02E
:101640000E947C006091B7008091B60090E070E04D
:1016500040E050E00E947C0008956091B5008091C8
:10166000B40090E070E041E050E00E94DB0085E8CB
:101670008A95F1F700006091B5008091B40090E088
:1016800070E040E050E00E94DB000E94D20ABC0102
:1016900080E090E00E94AD0C20E03CEF45E057E494
:1016A0000E945F0D20E034E244E75BE40E94140CEA
:1016B0000E94810CCB01089584E467E044E426E0B5
:1016C0000E940F0B0E94180B80E061E041E422E4CD
:1016D00002E0E2E4EE2EF3E0CF2EA2E4AA2EB4E084
:1016E0008B2E0E94390480E061E041E422E402E0B4
:1016F00092E4E92E34E0C32E50E6A52E50E0B52E3C
:101700000E94E8050E942D0B4C01AA24BB2480E016
:1017100061E041E422E40E941C0680E061E041E4D3
:1017200022E47AE6A72E70E0B72E0E94E8058FEF3C
:1017300094E3ACE081509040A040E1F700C000008D
:1017400080E061E041E422E4AA24A3948824839405
:101750000E946A05C8CF5058BB27AA270ED075C172
:1017600066D130F06BD120F031F49F3F11F41EF4BC
:101770005BC10EF4E095E7FB51C1E92F77D180F30F
:10178000BA17620773078407950718F071F49EF57E
:101790008FC10EF4E0950B2EBA2FA02D0B01B901CD
:1017A00090010C01CA01A0011124FF27591B99F0D7
:1017B000593F50F4503E68F11A16F040A22F232FE3
:1017C000342F4427585FF3CF469537952795A79533
:1017D000F0405395C9F77EF41F16BA0B620B730BDA
:1017E000840BBAF09150A1F0FF0FBB1F661F771F4B
:1017F000881FC2F70EC0BA0F621F731F841F48F400
:10180000879577956795B795F7959E3F08F0B3CF85
:101810009395880F08F09927EE0F9795879508956F
:10182000D9D008F481E008950CD00FC107D140F061
:10183000FED030F021F45F3F19F0F0C0511139C1F2
:10184000F3C014D198F39923C9F35523B1F3951B31
:10185000550BBB27AA2762177307840738F09F5FD1
:101860005F4F220F331F441FAA1FA9F333D00E2E40
:101870003AF0E0E830D091505040E695001CCAF7AD
:1018800029D0FE2F27D0660F771F881FBB1F261772
:1018900037074807AB07B0E809F0BB0B802DBF0145
:1018A000FF2793585F4F2AF09E3F510568F0B6C05E
:1018B00000C15F3FECF3983EDCF386957795679522
:1018C000B795F7959F5FC9F7880F911D96958795F6
:1018D00097F90895E1E0660F771F881FBB1F621715
:1018E00073078407BA0720F0621B730B840BBA0BD3
:1018F000EE1F88F7E095089504D06894B111D9C01F
:101900000895BCD088F09F5790F0B92F9927B75110
:10191000A0F0D1F0660F771F881F991F1AF0BA95B3
:10192000C9F712C0B13081F0C3D0B1E00895C0C092
:10193000672F782F8827B85F39F0B93FCCF38695A9
:1019400077956795B395D9F73EF490958095709506
:1019500061957F4F8F4F9F4F0895E89409C097FB83
:101960003EF490958095709561957F4F8F4F9F4F76
:101970009923A9F0F92F96E9BB279395F6958795BA
:1019800077956795B795F111F8CFFAF4BB0F11F47D
:1019900060FF1BC06F5F7F4F8F4F9F4F16C0882324
:1019A00011F096E911C0772321F09EE8872F762F5A
:1019B00005C0662371F096E8862F70E060E02AF09B
:1019C0009A95660F771F881FDAF7880F9695879587
:1019D00097F90895990F0008550FAA0BE0E8FEEF5C
:1019E00016161706E807F907C0F012161306E407E3
:1019F000F50798F0621B730B840B950B39F40A26DC
:101A000061F0232B242B252B21F408950A2609F4B9
:101A1000A140A6958FEF811D811D089597F99F67BD
:101A200080E870E060E008959FEF80EC0895002466
:101A30000A941616170618060906089500240A9433
:101A400012161306140605060895092E0394000CB9
:101A500011F4882352F0BB0F40F4BF2B11F460FF48
:101A600004C06F5F7F4F8F4F9F4F089557FD905871
:101A7000440F551F59F05F3F71F04795880F97FB52
:101A8000991F61F09F3F79F087950895121613060C
:101A90001406551FF2CF4695F1DF08C0161617063B
:101AA0001806991FF1CF8695710561050894089570
:101AB000E894BB2766277727CB0197F908950BD0C9
:101AC000C4CFB5DF28F0BADF18F0952309F0A6CF10
:101AD000ABCF1124EECFCADFA0F3959FD1F3950FC2
:101AE00050E0551F629FF001729FBB27F00DB11DA2
:101AF000639FAA27F00DB11DAA1F649F6627B00D32
:101B0000A11D661F829F2227B00DA11D621F739F1A
:101B1000B00DA11D621F839FA00D611D221F749F28
:101B20003327A00D611D231F849F600D211D822F6F
:101B3000762F6A2F11249F5750408AF0E1F08823B6
:101B40004AF0EE0FFF1FBB1F661F771F881F9150C3
:101B50005040A9F79E3F510570F060CFAACF5F3F7C
:101B6000ECF3983EDCF3869577956795B795F795F6
:101B7000E7959F5FC1F7FE2B880F911D969587957E
:101B800097F9089597FB092E07260AD077FD04D010
:101B90002ED006D000201AF4709561957F4F0895DD
:101BA000F6F7909581959F4F0895A1E21A2EAA1BF2
:101BB000BB1BFD010DC0AA1FBB1FEE1FFF1FA217FD
:101BC000B307E407F50720F0A21BB30BE40BF50BFA
:101BD000661F771F881F991F1A9469F76095709583
:101BE000809590959B01AC01BD01CF010895AA1B82
:101BF000BB1B51E107C0AA1FBB1FA617B70710F0F8
:101C0000A61BB70B881F991F5A95A9F78095909529
:101C1000BC01CD010895AEE0B0E0E1E1FEE00C943E
:101C2000B9100D891E8986E08C831A8309838FEF92
:101C30009FE79E838D83AE01475E5F4FCE01019685
:101C40006F89788D0E942D0EEF81F885E00FF11FCE
:101C500010822E96E4E00C94D510ADE0B0E0E3E302
:101C6000FEE00C94AB103C017D876C875A01FC01AF
:101C700017821682838181FFC8C12E010894411CFE
:101C8000511CF3019381EC85FD8593FD859193FFB4
:101C90008191FD87EC87882309F4B3C1853241F433
:101CA00093FD859193FF8191FD87EC87853229F41F
:101CB00090E0B3010E942110E4CFFF24EE2410E055
:101CC0001032B0F48B3269F08C3228F4803251F04B
:101CD000833271F40BC08D3239F0803349F41160D6
:101CE0002CC01260146029C0186027C0106125C084
:101CF00017FD2EC0282F20532A3098F416FF08C055
:101D00008F2D880FF82EFF0CFF0CF80EF20E15C069
:101D10008E2D880FE82EEE0CEE0CE80EE20E10620F
:101D20000CC08E3221F416FD6CC1106406C08C36D6
:101D300011F4106802C0883659F4EC85FD8593FDD6
:101D4000859193FF8191FD87EC87882309F0B8CFB7
:101D5000982F9554933018F09052933038F424E033
:101D600030E0A20EB31E3FE339830FC0833631F05B
:101D7000833781F0833509F05AC022C0F501808194
:101D8000898322E030E0A20EB31E21E0C22ED12CC6
:101D9000420114C092E0292E312C2A0C3B1CF50183
:101DA0008080918016FF03C06F2D70E002C06FEF3E
:101DB0007FEFC4010E9416106C0151011F7715C0FE
:101DC00082E0282E312C2A0C3B1CF501808091806A
:101DD00016FF03C06F2D70E002C06FEF7FEFC401EC
:101DE0000E940B106C011068510113FD1CC006C04D
:101DF00080E290E0B3010E942110EA948E2D90E0E1
:101E0000C816D906A8F30FC0F40117FD859117FF76
:101E100081914F0190E0B3010E942110E110EA94FA
:101E20000894C108D108C114D10471F7E7C0843601
:101E300011F0893651F5F50117FF07C080819181B6
:101E4000A281B38124E030E008C080819181AA277B
:101E500097FDA095BA2F22E030E0A20EB31E012F0D
:101E60000F76B7FF08C0B095A095909581959F4FCC
:101E7000AF4FBF4F0068BC01CD01A2012AE030E0A6
:101E80000E944D10D82ED4183FC0853721F41F7EF4
:101E90002AE030E020C0197F8F36A9F0803720F487
:101EA000883509F0AEC00BC0803721F0883709F0C3
:101EB000A8C001C0106114FF09C0146007C014FF5E
:101EC00008C0166006C028E030E005C020E130E020
:101ED00002C020E132E0F50117FF07C06081718187
:101EE0008281938144E050E006C06081718180E08E
:101EF00090E042E050E0A40EB51EA2010E944D10F9
:101F0000D82ED418012F0F7706FF09C00E7FDF14DB
:101F100030F404FF06C002FD04C00F7E02C01D2D78
:101F200001C01F2D802F90E004FF0CC0FE01ED0DBD
:101F3000F11D2081203311F4097E09C002FF06C083
:101F40001E5F05C086789070009709F01F5F802E95
:101F5000992403FD12C000FF0DC0FD2C1E1550F486
:101F6000FE0CF11A1E2D06C080E290E0B3010E9423
:101F700021101F5F1E15C0F304C01E1510F4E11AD6
:101F800001C0EE2484FE0FC080E390E0B3010E9404
:101F9000211082FE1FC081FE03C088E590E010C0C2
:101FA00088E790E00DC0C40186789070009791F0AA
:101FB00081FC02C080E201C08BE207FD8DE290E06F
:101FC000B3010E94211006C080E390E0B3010E949B
:101FD0002110FA94DF14C0F3DA94F201ED0DF11D33
:101FE000808190E0B3010E942110DD20A9F706C096
:101FF00080E290E0B3010E942110EA94EE20C1F744
:1020000040CEF3018681978102C08FEF9FEF2D961E
:10201000E2E10C94C710FC01059061507040011082
:10202000D8F7809590958E0F9F1F0895FC01615001
:10203000704001900110D8F7809590958E0F9F1FEA
:1020400008950F931F93CF93DF938C01EB018B8146
:1020500081FF1BC082FF0DC02E813F818C819D813D
:102060002817390764F4E881F9810193F983E8833B
:1020700006C0E885F985802F0995009731F48E8197
:102080009F8101969F838E8302C00FEF1FEFC801CF
:10209000DF91CF911F910F910895FA01AA2728305F
:1020A00051F1203181F1E8946F936E7F6E5F7F4F25
:1020B0008F4F9F4FAF4FB1E03ED0B4E03CD0670FA1
:1020C000781F891F9A1FA11D680F791F8A1F911DF4
:1020D000A11D6A0F711D811D911DA11D20D009F444
:1020E00068943F912AE0269F11243019305D319386
:1020F000DEF6CF010895462F4770405D4193B3E06F
:102100000FD0C9F7F6CF462F4F70405D4A3318F015
:10211000495D31FD4052419302D0A9F7EACFB4E0C6
:10212000A6959795879577956795BA95C9F700977E
:102130006105710508959B01AC010A2E069457951F
:10214000479537952795BA95C9F7620F731F841F76
:10215000951FA01D08952F923F924F925F926F920C
:102160007F928F929F92AF92BF92CF92DF92EF9227
:10217000FF920F931F93CF93DF93CDB7DEB7CA1BA8
:10218000DB0B0FB6F894DEBF0FBECDBF09942A88D3
:10219000398848885F846E847D848C849B84AA847B
:1021A000B984C884DF80EE80FD800C811B81AA8108
:1021B000B981CE0FD11D0FB6F894DEBF0FBECDBFD3
:0821C000ED010895F894FFCF32
:1021C80044697374616E63653D00636D0037383927
:1021D8002F3435362A3132332D41303D2B256400DA
:1021E8002D0000257325642E25303464003F065BDE
:0E21F8004F666D7D077F6F771F395E7971002E
:00000001FF
